{
  "_format": "hh-sol-artifact-1",
  "contractName": "ERC721_NFT",
  "sourceName": "contracts/ERC721_NFT.sol",
  "abi": [
    {
      "inputs": [],
      "stateMutability": "nonpayable",
      "type": "constructor"
    },
    {
      "anonymous": false,
      "inputs": [
        {
          "indexed": true,
          "internalType": "address",
          "name": "owner",
          "type": "address"
        },
        {
          "indexed": true,
          "internalType": "address",
          "name": "approved",
          "type": "address"
        },
        {
          "indexed": true,
          "internalType": "uint256",
          "name": "tokenId",
          "type": "uint256"
        }
      ],
      "name": "Approval",
      "type": "event"
    },
    {
      "anonymous": false,
      "inputs": [
        {
          "indexed": true,
          "internalType": "address",
          "name": "owner",
          "type": "address"
        },
        {
          "indexed": true,
          "internalType": "address",
          "name": "operator",
          "type": "address"
        },
        {
          "indexed": false,
          "internalType": "bool",
          "name": "approved",
          "type": "bool"
        }
      ],
      "name": "ApprovalForAll",
      "type": "event"
    },
    {
      "anonymous": false,
      "inputs": [
        {
          "indexed": true,
          "internalType": "address",
          "name": "previousOwner",
          "type": "address"
        },
        {
          "indexed": true,
          "internalType": "address",
          "name": "newOwner",
          "type": "address"
        }
      ],
      "name": "OwnershipTransferred",
      "type": "event"
    },
    {
      "anonymous": false,
      "inputs": [
        {
          "indexed": false,
          "internalType": "address",
          "name": "account",
          "type": "address"
        }
      ],
      "name": "Paused",
      "type": "event"
    },
    {
      "anonymous": false,
      "inputs": [
        {
          "indexed": true,
          "internalType": "address",
          "name": "from",
          "type": "address"
        },
        {
          "indexed": true,
          "internalType": "address",
          "name": "to",
          "type": "address"
        },
        {
          "indexed": true,
          "internalType": "uint256",
          "name": "tokenId",
          "type": "uint256"
        }
      ],
      "name": "Transfer",
      "type": "event"
    },
    {
      "anonymous": false,
      "inputs": [
        {
          "indexed": false,
          "internalType": "address",
          "name": "account",
          "type": "address"
        }
      ],
      "name": "Unpaused",
      "type": "event"
    },
    {
      "inputs": [
        {
          "internalType": "address",
          "name": "to",
          "type": "address"
        },
        {
          "internalType": "uint256",
          "name": "tokenId",
          "type": "uint256"
        }
      ],
      "name": "approve",
      "outputs": [],
      "stateMutability": "nonpayable",
      "type": "function"
    },
    {
      "inputs": [
        {
          "internalType": "address",
          "name": "owner",
          "type": "address"
        }
      ],
      "name": "balanceOf",
      "outputs": [
        {
          "internalType": "uint256",
          "name": "",
          "type": "uint256"
        }
      ],
      "stateMutability": "view",
      "type": "function"
    },
    {
      "inputs": [
        {
          "internalType": "uint256",
          "name": "tokenId",
          "type": "uint256"
        }
      ],
      "name": "burn",
      "outputs": [],
      "stateMutability": "nonpayable",
      "type": "function"
    },
    {
      "inputs": [
        {
          "internalType": "uint256",
          "name": "tokenId",
          "type": "uint256"
        }
      ],
      "name": "getApproved",
      "outputs": [
        {
          "internalType": "address",
          "name": "",
          "type": "address"
        }
      ],
      "stateMutability": "view",
      "type": "function"
    },
    {
      "inputs": [
        {
          "internalType": "address",
          "name": "owner",
          "type": "address"
        },
        {
          "internalType": "address",
          "name": "operator",
          "type": "address"
        }
      ],
      "name": "isApprovedForAll",
      "outputs": [
        {
          "internalType": "bool",
          "name": "",
          "type": "bool"
        }
      ],
      "stateMutability": "view",
      "type": "function"
    },
    {
      "inputs": [],
      "name": "name",
      "outputs": [
        {
          "internalType": "string",
          "name": "",
          "type": "string"
        }
      ],
      "stateMutability": "view",
      "type": "function"
    },
    {
      "inputs": [],
      "name": "owner",
      "outputs": [
        {
          "internalType": "address",
          "name": "",
          "type": "address"
        }
      ],
      "stateMutability": "view",
      "type": "function"
    },
    {
      "inputs": [
        {
          "internalType": "uint256",
          "name": "tokenId",
          "type": "uint256"
        }
      ],
      "name": "ownerOf",
      "outputs": [
        {
          "internalType": "address",
          "name": "",
          "type": "address"
        }
      ],
      "stateMutability": "view",
      "type": "function"
    },
    {
      "inputs": [],
      "name": "pause",
      "outputs": [],
      "stateMutability": "nonpayable",
      "type": "function"
    },
    {
      "inputs": [],
      "name": "paused",
      "outputs": [
        {
          "internalType": "bool",
          "name": "",
          "type": "bool"
        }
      ],
      "stateMutability": "view",
      "type": "function"
    },
    {
      "inputs": [],
      "name": "renounceOwnership",
      "outputs": [],
      "stateMutability": "nonpayable",
      "type": "function"
    },
    {
      "inputs": [
        {
          "internalType": "address",
          "name": "to",
          "type": "address"
        },
        {
          "internalType": "string",
          "name": "uri",
          "type": "string"
        }
      ],
      "name": "safeMint",
      "outputs": [],
      "stateMutability": "nonpayable",
      "type": "function"
    },
    {
      "inputs": [
        {
          "internalType": "address",
          "name": "from",
          "type": "address"
        },
        {
          "internalType": "address",
          "name": "to",
          "type": "address"
        },
        {
          "internalType": "uint256",
          "name": "tokenId",
          "type": "uint256"
        }
      ],
      "name": "safeTransferFrom",
      "outputs": [],
      "stateMutability": "nonpayable",
      "type": "function"
    },
    {
      "inputs": [
        {
          "internalType": "address",
          "name": "from",
          "type": "address"
        },
        {
          "internalType": "address",
          "name": "to",
          "type": "address"
        },
        {
          "internalType": "uint256",
          "name": "tokenId",
          "type": "uint256"
        },
        {
          "internalType": "bytes",
          "name": "_data",
          "type": "bytes"
        }
      ],
      "name": "safeTransferFrom",
      "outputs": [],
      "stateMutability": "nonpayable",
      "type": "function"
    },
    {
      "inputs": [
        {
          "internalType": "address",
          "name": "operator",
          "type": "address"
        },
        {
          "internalType": "bool",
          "name": "approved",
          "type": "bool"
        }
      ],
      "name": "setApprovalForAll",
      "outputs": [],
      "stateMutability": "nonpayable",
      "type": "function"
    },
    {
      "inputs": [
        {
          "internalType": "bytes4",
          "name": "interfaceId",
          "type": "bytes4"
        }
      ],
      "name": "supportsInterface",
      "outputs": [
        {
          "internalType": "bool",
          "name": "",
          "type": "bool"
        }
      ],
      "stateMutability": "view",
      "type": "function"
    },
    {
      "inputs": [],
      "name": "symbol",
      "outputs": [
        {
          "internalType": "string",
          "name": "",
          "type": "string"
        }
      ],
      "stateMutability": "view",
      "type": "function"
    },
    {
      "inputs": [
        {
          "internalType": "uint256",
          "name": "index",
          "type": "uint256"
        }
      ],
      "name": "tokenByIndex",
      "outputs": [
        {
          "internalType": "uint256",
          "name": "",
          "type": "uint256"
        }
      ],
      "stateMutability": "view",
      "type": "function"
    },
    {
      "inputs": [
        {
          "internalType": "address",
          "name": "owner",
          "type": "address"
        },
        {
          "internalType": "uint256",
          "name": "index",
          "type": "uint256"
        }
      ],
      "name": "tokenOfOwnerByIndex",
      "outputs": [
        {
          "internalType": "uint256",
          "name": "",
          "type": "uint256"
        }
      ],
      "stateMutability": "view",
      "type": "function"
    },
    {
      "inputs": [
        {
          "internalType": "uint256",
          "name": "tokenId",
          "type": "uint256"
        }
      ],
      "name": "tokenURI",
      "outputs": [
        {
          "internalType": "string",
          "name": "",
          "type": "string"
        }
      ],
      "stateMutability": "view",
      "type": "function"
    },
    {
      "inputs": [],
      "name": "totalSupply",
      "outputs": [
        {
          "internalType": "uint256",
          "name": "",
          "type": "uint256"
        }
      ],
      "stateMutability": "view",
      "type": "function"
    },
    {
      "inputs": [
        {
          "internalType": "address",
          "name": "from",
          "type": "address"
        },
        {
          "internalType": "address",
          "name": "to",
          "type": "address"
        },
        {
          "internalType": "uint256",
          "name": "tokenId",
          "type": "uint256"
        }
      ],
      "name": "transferFrom",
      "outputs": [],
      "stateMutability": "nonpayable",
      "type": "function"
    },
    {
      "inputs": [
        {
          "internalType": "address",
          "name": "newOwner",
          "type": "address"
        }
      ],
      "name": "transferOwnership",
      "outputs": [],
      "stateMutability": "nonpayable",
      "type": "function"
    },
    {
      "inputs": [],
      "name": "unpause",
      "outputs": [],
      "stateMutability": "nonpayable",
      "type": "function"
    }
  ],
  "bytecode": "0x60806040523480156200001157600080fd5b506040518060400160405280600781526020017f4d79546f6b656e000000000000000000000000000000000000000000000000008152506040518060400160405280600381526020017f4d544b0000000000000000000000000000000000000000000000000000000000815250816000908051906020019062000096929190620001c1565b508060019080519060200190620000af929190620001c1565b5050506000600b60006101000a81548160ff021916908315150217905550620000ed620000e1620000f360201b60201c565b620000fb60201b60201c565b620002d6565b600033905090565b6000600b60019054906101000a900473ffffffffffffffffffffffffffffffffffffffff16905081600b60016101000a81548173ffffffffffffffffffffffffffffffffffffffff021916908373ffffffffffffffffffffffffffffffffffffffff1602179055508173ffffffffffffffffffffffffffffffffffffffff168173ffffffffffffffffffffffffffffffffffffffff167f8be0079c531659141344cd1fd0a4f28419497f9722a3daafe3b4186f6b6457e060405160405180910390a35050565b828054620001cf9062000271565b90600052602060002090601f016020900481019282620001f357600085556200023f565b82601f106200020e57805160ff19168380011785556200023f565b828001600101855582156200023f579182015b828111156200023e57825182559160200191906001019062000221565b5b5090506200024e919062000252565b5090565b5b808211156200026d57600081600090555060010162000253565b5090565b600060028204905060018216806200028a57607f821691505b60208210811415620002a157620002a0620002a7565b5b50919050565b7f4e487b7100000000000000000000000000000000000000000000000000000000600052602260045260246000fd5b613f5a80620002e66000396000f3fe608060405234801561001057600080fd5b50600436106101585760003560e01c80636352211e116100c3578063a22cb4651161007c578063a22cb465146103a1578063b88d4fde146103bd578063c87b56dd146103d9578063d204c45e14610409578063e985e9c514610425578063f2fde38b1461045557610158565b80636352211e146102f157806370a0823114610321578063715018a6146103515780638456cb591461035b5780638da5cb5b1461036557806395d89b411461038357610158565b80632f745c59116101155780632f745c59146102315780633f4ba83a1461026157806342842e0e1461026b57806342966c68146102875780634f6ccce7146102a35780635c975abb146102d357610158565b806301ffc9a71461015d57806306fdde031461018d578063081812fc146101ab578063095ea7b3146101db57806318160ddd146101f757806323b872dd14610215575b600080fd5b61017760048036038101906101729190612c2b565b610471565b6040516101849190613126565b60405180910390f35b610195610483565b6040516101a29190613141565b60405180910390f35b6101c560048036038101906101c09190612c7d565b610515565b6040516101d291906130bf565b60405180910390f35b6101f560048036038101906101f09190612bef565b61059a565b005b6101ff6106b2565b60405161020c9190613443565b60405180910390f35b61022f600480360381019061022a9190612a95565b6106bf565b005b61024b60048036038101906102469190612bef565b61071f565b6040516102589190613443565b60405180910390f35b6102696107c4565b005b61028560048036038101906102809190612a95565b61084a565b005b6102a1600480360381019061029c9190612c7d565b61086a565b005b6102bd60048036038101906102b89190612c7d565b6108c6565b6040516102ca9190613443565b60405180910390f35b6102db61095d565b6040516102e89190613126565b60405180910390f35b61030b60048036038101906103069190612c7d565b610974565b60405161031891906130bf565b60405180910390f35b61033b60048036038101906103369190612a30565b610a26565b6040516103489190613443565b60405180910390f35b610359610ade565b005b610363610b66565b005b61036d610bec565b60405161037a91906130bf565b60405180910390f35b61038b610c16565b6040516103989190613141565b60405180910390f35b6103bb60048036038101906103b69190612b5f565b610ca8565b005b6103d760048036038101906103d29190612ae4565b610cbe565b005b6103f360048036038101906103ee9190612c7d565b610d20565b6040516104009190613141565b60405180910390f35b610423600480360381019061041e9190612b9b565b610d32565b005b61043f600480360381019061043a9190612a59565b610ddf565b60405161044c9190613126565b60405180910390f35b61046f600480360381019061046a9190612a30565b610e73565b005b600061047c82610f6b565b9050919050565b60606000805461049290613699565b80601f01602080910402602001604051908101604052809291908181526020018280546104be90613699565b801561050b5780601f106104e05761010080835404028352916020019161050b565b820191906000526020600020905b8154815290600101906020018083116104ee57829003601f168201915b5050505050905090565b600061052082610fe5565b61055f576040517f08c379a000000000000000000000000000000000000000000000000000000000815260040161055690613343565b60405180910390fd5b6004600083815260200190815260200160002060009054906101000a900473ffffffffffffffffffffffffffffffffffffffff169050919050565b60006105a582610974565b90508073ffffffffffffffffffffffffffffffffffffffff168373ffffffffffffffffffffffffffffffffffffffff161415610616576040517f08c379a000000000000000000000000000000000000000000000000000000000815260040161060d906133c3565b60405180910390fd5b8073ffffffffffffffffffffffffffffffffffffffff16610635611051565b73ffffffffffffffffffffffffffffffffffffffff16148061066457506106638161065e611051565b610ddf565b5b6106a3576040517f08c379a000000000000000000000000000000000000000000000000000000000815260040161069a90613283565b60405180910390fd5b6106ad8383611059565b505050565b6000600880549050905090565b6106d06106ca611051565b82611112565b61070f576040517f08c379a0000000000000000000000000000000000000000000000000000000008152600401610706906133e3565b60405180910390fd5b61071a8383836111f0565b505050565b600061072a83610a26565b821061076b576040517f08c379a000000000000000000000000000000000000000000000000000000000815260040161076290613183565b60405180910390fd5b600660008473ffffffffffffffffffffffffffffffffffffffff1673ffffffffffffffffffffffffffffffffffffffff168152602001908152602001600020600083815260200190815260200160002054905092915050565b6107cc611051565b73ffffffffffffffffffffffffffffffffffffffff166107ea610bec565b73ffffffffffffffffffffffffffffffffffffffff1614610840576040517f08c379a000000000000000000000000000000000000000000000000000000000815260040161083790613363565b60405180910390fd5b61084861144c565b565b61086583838360405180602001604052806000815250610cbe565b505050565b61087b610875611051565b82611112565b6108ba576040517f08c379a00000000000000000000000000000000000000000000000000000000081526004016108b190613423565b60405180910390fd5b6108c3816114ee565b50565b60006108d06106b2565b8210610911576040517f08c379a000000000000000000000000000000000000000000000000000000000815260040161090890613403565b60405180910390fd5b6008828154811061094b577f4e487b7100000000000000000000000000000000000000000000000000000000600052603260045260246000fd5b90600052602060002001549050919050565b6000600b60009054906101000a900460ff16905090565b6000806002600084815260200190815260200160002060009054906101000a900473ffffffffffffffffffffffffffffffffffffffff169050600073ffffffffffffffffffffffffffffffffffffffff168173ffffffffffffffffffffffffffffffffffffffff161415610a1d576040517f08c379a0000000000000000000000000000000000000000000000000000000008152600401610a14906132c3565b60405180910390fd5b80915050919050565b60008073ffffffffffffffffffffffffffffffffffffffff168273ffffffffffffffffffffffffffffffffffffffff161415610a97576040517f08c379a0000000000000000000000000000000000000000000000000000000008152600401610a8e906132a3565b60405180910390fd5b600360008373ffffffffffffffffffffffffffffffffffffffff1673ffffffffffffffffffffffffffffffffffffffff168152602001908152602001600020549050919050565b610ae6611051565b73ffffffffffffffffffffffffffffffffffffffff16610b04610bec565b73ffffffffffffffffffffffffffffffffffffffff1614610b5a576040517f08c379a0000000000000000000000000000000000000000000000000000000008152600401610b5190613363565b60405180910390fd5b610b6460006114fa565b565b610b6e611051565b73ffffffffffffffffffffffffffffffffffffffff16610b8c610bec565b73ffffffffffffffffffffffffffffffffffffffff1614610be2576040517f08c379a0000000000000000000000000000000000000000000000000000000008152600401610bd990613363565b60405180910390fd5b610bea6115c0565b565b6000600b60019054906101000a900473ffffffffffffffffffffffffffffffffffffffff16905090565b606060018054610c2590613699565b80601f0160208091040260200160405190810160405280929190818152602001828054610c5190613699565b8015610c9e5780601f10610c7357610100808354040283529160200191610c9e565b820191906000526020600020905b815481529060010190602001808311610c8157829003601f168201915b5050505050905090565b610cba610cb3611051565b8383611663565b5050565b610ccf610cc9611051565b83611112565b610d0e576040517f08c379a0000000000000000000000000000000000000000000000000000000008152600401610d05906133e3565b60405180910390fd5b610d1a848484846117d0565b50505050565b6060610d2b8261182c565b9050919050565b610d3a611051565b73ffffffffffffffffffffffffffffffffffffffff16610d58610bec565b73ffffffffffffffffffffffffffffffffffffffff1614610dae576040517f08c379a0000000000000000000000000000000000000000000000000000000008152600401610da590613363565b60405180910390fd5b6000610dba600c61197e565b9050610dc6600c61198c565b610dd083826119a2565b610dda81836119c0565b505050565b6000600560008473ffffffffffffffffffffffffffffffffffffffff1673ffffffffffffffffffffffffffffffffffffffff16815260200190815260200160002060008373ffffffffffffffffffffffffffffffffffffffff1673ffffffffffffffffffffffffffffffffffffffff16815260200190815260200160002060009054906101000a900460ff16905092915050565b610e7b611051565b73ffffffffffffffffffffffffffffffffffffffff16610e99610bec565b73ffffffffffffffffffffffffffffffffffffffff1614610eef576040517f08c379a0000000000000000000000000000000000000000000000000000000008152600401610ee690613363565b60405180910390fd5b600073ffffffffffffffffffffffffffffffffffffffff168173ffffffffffffffffffffffffffffffffffffffff161415610f5f576040517f08c379a0000000000000000000000000000000000000000000000000000000008152600401610f56906131c3565b60405180910390fd5b610f68816114fa565b50565b60007f780e9d63000000000000000000000000000000000000000000000000000000007bffffffffffffffffffffffffffffffffffffffffffffffffffffffff1916827bffffffffffffffffffffffffffffffffffffffffffffffffffffffff19161480610fde5750610fdd82611a34565b5b9050919050565b60008073ffffffffffffffffffffffffffffffffffffffff166002600084815260200190815260200160002060009054906101000a900473ffffffffffffffffffffffffffffffffffffffff1673ffffffffffffffffffffffffffffffffffffffff1614159050919050565b600033905090565b816004600083815260200190815260200160002060006101000a81548173ffffffffffffffffffffffffffffffffffffffff021916908373ffffffffffffffffffffffffffffffffffffffff160217905550808273ffffffffffffffffffffffffffffffffffffffff166110cc83610974565b73ffffffffffffffffffffffffffffffffffffffff167f8c5be1e5ebec7d5bd14f71427d1e84f3dd0314c0f7b2291e5b200ac8c7c3b92560405160405180910390a45050565b600061111d82610fe5565b61115c576040517f08c379a000000000000000000000000000000000000000000000000000000000815260040161115390613243565b60405180910390fd5b600061116783610974565b90508073ffffffffffffffffffffffffffffffffffffffff168473ffffffffffffffffffffffffffffffffffffffff1614806111d657508373ffffffffffffffffffffffffffffffffffffffff166111be84610515565b73ffffffffffffffffffffffffffffffffffffffff16145b806111e757506111e68185610ddf565b5b91505092915050565b8273ffffffffffffffffffffffffffffffffffffffff1661121082610974565b73ffffffffffffffffffffffffffffffffffffffff1614611266576040517f08c379a000000000000000000000000000000000000000000000000000000000815260040161125d90613383565b60405180910390fd5b600073ffffffffffffffffffffffffffffffffffffffff168273ffffffffffffffffffffffffffffffffffffffff1614156112d6576040517f08c379a00000000000000000000000000000000000000000000000000000000081526004016112cd90613203565b60405180910390fd5b6112e1838383611b16565b6112ec600082611059565b6001600360008573ffffffffffffffffffffffffffffffffffffffff1673ffffffffffffffffffffffffffffffffffffffff168152602001908152602001600020600082825461133c91906135af565b925050819055506001600360008473ffffffffffffffffffffffffffffffffffffffff1673ffffffffffffffffffffffffffffffffffffffff16815260200190815260200160002060008282546113939190613528565b92505081905550816002600083815260200190815260200160002060006101000a81548173ffffffffffffffffffffffffffffffffffffffff021916908373ffffffffffffffffffffffffffffffffffffffff160217905550808273ffffffffffffffffffffffffffffffffffffffff168473ffffffffffffffffffffffffffffffffffffffff167fddf252ad1be2c89b69c2b068fc378daa952ba7f163c4a11628f55a4df523b3ef60405160405180910390a4505050565b61145461095d565b611493576040517f08c379a000000000000000000000000000000000000000000000000000000000815260040161148a90613163565b60405180910390fd5b6000600b60006101000a81548160ff0219169083151502179055507f5db9ee0a495bf2e6ff9c91a7834c1ba4fdd244a5e8aa4e537bd38aeae4b073aa6114d7611051565b6040516114e491906130bf565b60405180910390a1565b6114f781611b6e565b50565b6000600b60019054906101000a900473ffffffffffffffffffffffffffffffffffffffff16905081600b60016101000a81548173ffffffffffffffffffffffffffffffffffffffff021916908373ffffffffffffffffffffffffffffffffffffffff1602179055508173ffffffffffffffffffffffffffffffffffffffff168173ffffffffffffffffffffffffffffffffffffffff167f8be0079c531659141344cd1fd0a4f28419497f9722a3daafe3b4186f6b6457e060405160405180910390a35050565b6115c861095d565b15611608576040517f08c379a00000000000000000000000000000000000000000000000000000000081526004016115ff90613263565b60405180910390fd5b6001600b60006101000a81548160ff0219169083151502179055507f62e78cea01bee320cd4e420270b5ea74000d11b0c9f74754ebdbfc544b05a25861164c611051565b60405161165991906130bf565b60405180910390a1565b8173ffffffffffffffffffffffffffffffffffffffff168373ffffffffffffffffffffffffffffffffffffffff1614156116d2576040517f08c379a00000000000000000000000000000000000000000000000000000000081526004016116c990613223565b60405180910390fd5b80600560008573ffffffffffffffffffffffffffffffffffffffff1673ffffffffffffffffffffffffffffffffffffffff16815260200190815260200160002060008473ffffffffffffffffffffffffffffffffffffffff1673ffffffffffffffffffffffffffffffffffffffff16815260200190815260200160002060006101000a81548160ff0219169083151502179055508173ffffffffffffffffffffffffffffffffffffffff168373ffffffffffffffffffffffffffffffffffffffff167f17307eab39ab6107e8899845ad3d59bd9653f200f220920489ca2b5937696c31836040516117c39190613126565b60405180910390a3505050565b6117db8484846111f0565b6117e784848484611bc1565b611826576040517f08c379a000000000000000000000000000000000000000000000000000000000815260040161181d906131a3565b60405180910390fd5b50505050565b606061183782610fe5565b611876576040517f08c379a000000000000000000000000000000000000000000000000000000000815260040161186d90613323565b60405180910390fd5b6000600a6000848152602001908152602001600020805461189690613699565b80601f01602080910402602001604051908101604052809291908181526020018280546118c290613699565b801561190f5780601f106118e45761010080835404028352916020019161190f565b820191906000526020600020905b8154815290600101906020018083116118f257829003601f168201915b505050505090506000611920611d58565b9050600081511415611936578192505050611979565b60008251111561196b57808260405160200161195392919061309b565b60405160208183030381529060405292505050611979565b61197484611d78565b925050505b919050565b600081600001549050919050565b6001816000016000828254019250508190555050565b6119bc828260405180602001604052806000815250611e1f565b5050565b6119c982610fe5565b611a08576040517f08c379a00000000000000000000000000000000000000000000000000000000081526004016119ff906132e3565b60405180910390fd5b80600a60008481526020019081526020016000209080519060200190611a2f929190612814565b505050565b60007f80ac58cd000000000000000000000000000000000000000000000000000000007bffffffffffffffffffffffffffffffffffffffffffffffffffffffff1916827bffffffffffffffffffffffffffffffffffffffffffffffffffffffff19161480611aff57507f5b5e139f000000000000000000000000000000000000000000000000000000007bffffffffffffffffffffffffffffffffffffffffffffffffffffffff1916827bffffffffffffffffffffffffffffffffffffffffffffffffffffffff1916145b80611b0f5750611b0e82611e7a565b5b9050919050565b611b1e61095d565b15611b5e576040517f08c379a0000000000000000000000000000000000000000000000000000000008152600401611b5590613263565b60405180910390fd5b611b69838383611ee4565b505050565b611b7781611ff8565b6000600a60008381526020019081526020016000208054611b9790613699565b905014611bbe57600a60008281526020019081526020016000206000611bbd919061289a565b5b50565b6000611be28473ffffffffffffffffffffffffffffffffffffffff16612109565b15611d4b578373ffffffffffffffffffffffffffffffffffffffff1663150b7a02611c0b611051565b8786866040518563ffffffff1660e01b8152600401611c2d94939291906130da565b602060405180830381600087803b158015611c4757600080fd5b505af1925050508015611c7857506040513d601f19601f82011682018060405250810190611c759190612c54565b60015b611cfb573d8060008114611ca8576040519150601f19603f3d011682016040523d82523d6000602084013e611cad565b606091505b50600081511415611cf3576040517f08c379a0000000000000000000000000000000000000000000000000000000008152600401611cea906131a3565b60405180910390fd5b805181602001fd5b63150b7a0260e01b7bffffffffffffffffffffffffffffffffffffffffffffffffffffffff1916817bffffffffffffffffffffffffffffffffffffffffffffffffffffffff191614915050611d50565b600190505b949350505050565b6060604051806080016040528060508152602001613ed560509139905090565b6060611d8382610fe5565b611dc2576040517f08c379a0000000000000000000000000000000000000000000000000000000008152600401611db9906133a3565b60405180910390fd5b6000611dcc611d58565b90506000815111611dec5760405180602001604052806000815250611e17565b80611df68461211c565b604051602001611e0792919061309b565b6040516020818303038152906040525b915050919050565b611e2983836122c9565b611e366000848484611bc1565b611e75576040517f08c379a0000000000000000000000000000000000000000000000000000000008152600401611e6c906131a3565b60405180910390fd5b505050565b60007f01ffc9a7000000000000000000000000000000000000000000000000000000007bffffffffffffffffffffffffffffffffffffffffffffffffffffffff1916827bffffffffffffffffffffffffffffffffffffffffffffffffffffffff1916149050919050565b611eef838383612497565b600073ffffffffffffffffffffffffffffffffffffffff168373ffffffffffffffffffffffffffffffffffffffff161415611f3257611f2d8161249c565b611f71565b8173ffffffffffffffffffffffffffffffffffffffff168373ffffffffffffffffffffffffffffffffffffffff1614611f7057611f6f83826124e5565b5b5b600073ffffffffffffffffffffffffffffffffffffffff168273ffffffffffffffffffffffffffffffffffffffff161415611fb457611faf81612652565b611ff3565b8273ffffffffffffffffffffffffffffffffffffffff168273ffffffffffffffffffffffffffffffffffffffff1614611ff257611ff18282612795565b5b5b505050565b600061200382610974565b905061201181600084611b16565b61201c600083611059565b6001600360008373ffffffffffffffffffffffffffffffffffffffff1673ffffffffffffffffffffffffffffffffffffffff168152602001908152602001600020600082825461206c91906135af565b925050819055506002600083815260200190815260200160002060006101000a81549073ffffffffffffffffffffffffffffffffffffffff021916905581600073ffffffffffffffffffffffffffffffffffffffff168273ffffffffffffffffffffffffffffffffffffffff167fddf252ad1be2c89b69c2b068fc378daa952ba7f163c4a11628f55a4df523b3ef60405160405180910390a45050565b600080823b905060008111915050919050565b60606000821415612164576040518060400160405280600181526020017f300000000000000000000000000000000000000000000000000000000000000081525090506122c4565b600082905060005b6000821461219657808061217f906136fc565b915050600a8261218f919061357e565b915061216c565b60008167ffffffffffffffff8111156121d8577f4e487b7100000000000000000000000000000000000000000000000000000000600052604160045260246000fd5b6040519080825280601f01601f19166020018201604052801561220a5781602001600182028036833780820191505090505b5090505b600085146122bd5760018261222391906135af565b9150600a856122329190613745565b603061223e9190613528565b60f81b81838151811061227a577f4e487b7100000000000000000000000000000000000000000000000000000000600052603260045260246000fd5b60200101907effffffffffffffffffffffffffffffffffffffffffffffffffffffffffffff1916908160001a905350600a856122b6919061357e565b945061220e565b8093505050505b919050565b600073ffffffffffffffffffffffffffffffffffffffff168273ffffffffffffffffffffffffffffffffffffffff161415612339576040517f08c379a000000000000000000000000000000000000000000000000000000000815260040161233090613303565b60405180910390fd5b61234281610fe5565b15612382576040517f08c379a0000000000000000000000000000000000000000000000000000000008152600401612379906131e3565b60405180910390fd5b61238e60008383611b16565b6001600360008473ffffffffffffffffffffffffffffffffffffffff1673ffffffffffffffffffffffffffffffffffffffff16815260200190815260200160002060008282546123de9190613528565b92505081905550816002600083815260200190815260200160002060006101000a81548173ffffffffffffffffffffffffffffffffffffffff021916908373ffffffffffffffffffffffffffffffffffffffff160217905550808273ffffffffffffffffffffffffffffffffffffffff16600073ffffffffffffffffffffffffffffffffffffffff167fddf252ad1be2c89b69c2b068fc378daa952ba7f163c4a11628f55a4df523b3ef60405160405180910390a45050565b505050565b6008805490506009600083815260200190815260200160002081905550600881908060018154018082558091505060019003906000526020600020016000909190919091505550565b600060016124f284610a26565b6124fc91906135af565b90506000600760008481526020019081526020016000205490508181146125e1576000600660008673ffffffffffffffffffffffffffffffffffffffff1673ffffffffffffffffffffffffffffffffffffffff168152602001908152602001600020600084815260200190815260200160002054905080600660008773ffffffffffffffffffffffffffffffffffffffff1673ffffffffffffffffffffffffffffffffffffffff168152602001908152602001600020600084815260200190815260200160002081905550816007600083815260200190815260200160002081905550505b6007600084815260200190815260200160002060009055600660008573ffffffffffffffffffffffffffffffffffffffff1673ffffffffffffffffffffffffffffffffffffffff16815260200190815260200160002060008381526020019081526020016000206000905550505050565b6000600160088054905061266691906135af565b90506000600960008481526020019081526020016000205490506000600883815481106126bc577f4e487b7100000000000000000000000000000000000000000000000000000000600052603260045260246000fd5b906000526020600020015490508060088381548110612704577f4e487b7100000000000000000000000000000000000000000000000000000000600052603260045260246000fd5b906000526020600020018190555081600960008381526020019081526020016000208190555060096000858152602001908152602001600020600090556008805480612779577f4e487b7100000000000000000000000000000000000000000000000000000000600052603160045260246000fd5b6001900381819060005260206000200160009055905550505050565b60006127a083610a26565b905081600660008573ffffffffffffffffffffffffffffffffffffffff1673ffffffffffffffffffffffffffffffffffffffff168152602001908152602001600020600083815260200190815260200160002081905550806007600084815260200190815260200160002081905550505050565b82805461282090613699565b90600052602060002090601f0160209004810192826128425760008555612889565b82601f1061285b57805160ff1916838001178555612889565b82800160010185558215612889579182015b8281111561288857825182559160200191906001019061286d565b5b50905061289691906128da565b5090565b5080546128a690613699565b6000825580601f106128b857506128d7565b601f0160209004906000526020600020908101906128d691906128da565b5b50565b5b808211156128f35760008160009055506001016128db565b5090565b600061290a61290584613483565b61345e565b90508281526020810184848401111561292257600080fd5b61292d848285613657565b509392505050565b6000612948612943846134b4565b61345e565b90508281526020810184848401111561296057600080fd5b61296b848285613657565b509392505050565b60008135905061298281613e78565b92915050565b60008135905061299781613e8f565b92915050565b6000813590506129ac81613ea6565b92915050565b6000815190506129c181613ea6565b92915050565b600082601f8301126129d857600080fd5b81356129e88482602086016128f7565b91505092915050565b600082601f830112612a0257600080fd5b8135612a12848260208601612935565b91505092915050565b600081359050612a2a81613ebd565b92915050565b600060208284031215612a4257600080fd5b6000612a5084828501612973565b91505092915050565b60008060408385031215612a6c57600080fd5b6000612a7a85828601612973565b9250506020612a8b85828601612973565b9150509250929050565b600080600060608486031215612aaa57600080fd5b6000612ab886828701612973565b9350506020612ac986828701612973565b9250506040612ada86828701612a1b565b9150509250925092565b60008060008060808587031215612afa57600080fd5b6000612b0887828801612973565b9450506020612b1987828801612973565b9350506040612b2a87828801612a1b565b925050606085013567ffffffffffffffff811115612b4757600080fd5b612b53878288016129c7565b91505092959194509250565b60008060408385031215612b7257600080fd5b6000612b8085828601612973565b9250506020612b9185828601612988565b9150509250929050565b60008060408385031215612bae57600080fd5b6000612bbc85828601612973565b925050602083013567ffffffffffffffff811115612bd957600080fd5b612be5858286016129f1565b9150509250929050565b60008060408385031215612c0257600080fd5b6000612c1085828601612973565b9250506020612c2185828601612a1b565b9150509250929050565b600060208284031215612c3d57600080fd5b6000612c4b8482850161299d565b91505092915050565b600060208284031215612c6657600080fd5b6000612c74848285016129b2565b91505092915050565b600060208284031215612c8f57600080fd5b6000612c9d84828501612a1b565b91505092915050565b612caf816135e3565b82525050565b612cbe816135f5565b82525050565b6000612ccf826134e5565b612cd981856134fb565b9350612ce9818560208601613666565b612cf281613832565b840191505092915050565b6000612d08826134f0565b612d12818561350c565b9350612d22818560208601613666565b612d2b81613832565b840191505092915050565b6000612d41826134f0565b612d4b818561351d565b9350612d5b818560208601613666565b80840191505092915050565b6000612d7460148361350c565b9150612d7f82613843565b602082019050919050565b6000612d97602b8361350c565b9150612da28261386c565b604082019050919050565b6000612dba60328361350c565b9150612dc5826138bb565b604082019050919050565b6000612ddd60268361350c565b9150612de88261390a565b604082019050919050565b6000612e00601c8361350c565b9150612e0b82613959565b602082019050919050565b6000612e2360248361350c565b9150612e2e82613982565b604082019050919050565b6000612e4660198361350c565b9150612e51826139d1565b602082019050919050565b6000612e69602c8361350c565b9150612e74826139fa565b604082019050919050565b6000612e8c60108361350c565b9150612e9782613a49565b602082019050919050565b6000612eaf60388361350c565b9150612eba82613a72565b604082019050919050565b6000612ed2602a8361350c565b9150612edd82613ac1565b604082019050919050565b6000612ef560298361350c565b9150612f0082613b10565b604082019050919050565b6000612f18602e8361350c565b9150612f2382613b5f565b604082019050919050565b6000612f3b60208361350c565b9150612f4682613bae565b602082019050919050565b6000612f5e60318361350c565b9150612f6982613bd7565b604082019050919050565b6000612f81602c8361350c565b9150612f8c82613c26565b604082019050919050565b6000612fa460208361350c565b9150612faf82613c75565b602082019050919050565b6000612fc760298361350c565b9150612fd282613c9e565b604082019050919050565b6000612fea602f8361350c565b9150612ff582613ced565b604082019050919050565b600061300d60218361350c565b915061301882613d3c565b604082019050919050565b600061303060318361350c565b915061303b82613d8b565b604082019050919050565b6000613053602c8361350c565b915061305e82613dda565b604082019050919050565b600061307660308361350c565b915061308182613e29565b604082019050919050565b6130958161364d565b82525050565b60006130a78285612d36565b91506130b38284612d36565b91508190509392505050565b60006020820190506130d46000830184612ca6565b92915050565b60006080820190506130ef6000830187612ca6565b6130fc6020830186612ca6565b613109604083018561308c565b818103606083015261311b8184612cc4565b905095945050505050565b600060208201905061313b6000830184612cb5565b92915050565b6000602082019050818103600083015261315b8184612cfd565b905092915050565b6000602082019050818103600083015261317c81612d67565b9050919050565b6000602082019050818103600083015261319c81612d8a565b9050919050565b600060208201905081810360008301526131bc81612dad565b9050919050565b600060208201905081810360008301526131dc81612dd0565b9050919050565b600060208201905081810360008301526131fc81612df3565b9050919050565b6000602082019050818103600083015261321c81612e16565b9050919050565b6000602082019050818103600083015261323c81612e39565b9050919050565b6000602082019050818103600083015261325c81612e5c565b9050919050565b6000602082019050818103600083015261327c81612e7f565b9050919050565b6000602082019050818103600083015261329c81612ea2565b9050919050565b600060208201905081810360008301526132bc81612ec5565b9050919050565b600060208201905081810360008301526132dc81612ee8565b9050919050565b600060208201905081810360008301526132fc81612f0b565b9050919050565b6000602082019050818103600083015261331c81612f2e565b9050919050565b6000602082019050818103600083015261333c81612f51565b9050919050565b6000602082019050818103600083015261335c81612f74565b9050919050565b6000602082019050818103600083015261337c81612f97565b9050919050565b6000602082019050818103600083015261339c81612fba565b9050919050565b600060208201905081810360008301526133bc81612fdd565b9050919050565b600060208201905081810360008301526133dc81613000565b9050919050565b600060208201905081810360008301526133fc81613023565b9050919050565b6000602082019050818103600083015261341c81613046565b9050919050565b6000602082019050818103600083015261343c81613069565b9050919050565b6000602082019050613458600083018461308c565b92915050565b6000613468613479565b905061347482826136cb565b919050565b6000604051905090565b600067ffffffffffffffff82111561349e5761349d613803565b5b6134a782613832565b9050602081019050919050565b600067ffffffffffffffff8211156134cf576134ce613803565b5b6134d882613832565b9050602081019050919050565b600081519050919050565b600081519050919050565b600082825260208201905092915050565b600082825260208201905092915050565b600081905092915050565b60006135338261364d565b915061353e8361364d565b9250827fffffffffffffffffffffffffffffffffffffffffffffffffffffffffffffffff0382111561357357613572613776565b5b828201905092915050565b60006135898261364d565b91506135948361364d565b9250826135a4576135a36137a5565b5b828204905092915050565b60006135ba8261364d565b91506135c58361364d565b9250828210156135d8576135d7613776565b5b828203905092915050565b60006135ee8261362d565b9050919050565b60008115159050919050565b60007fffffffff0000000000000000000000000000000000000000000000000000000082169050919050565b600073ffffffffffffffffffffffffffffffffffffffff82169050919050565b6000819050919050565b82818337600083830152505050565b60005b83811015613684578082015181840152602081019050613669565b83811115613693576000848401525b50505050565b600060028204905060018216806136b157607f821691505b602082108114156136c5576136c46137d4565b5b50919050565b6136d482613832565b810181811067ffffffffffffffff821117156136f3576136f2613803565b5b80604052505050565b60006137078261364d565b91507fffffffffffffffffffffffffffffffffffffffffffffffffffffffffffffffff82141561373a57613739613776565b5b600182019050919050565b60006137508261364d565b915061375b8361364d565b92508261376b5761376a6137a5565b5b828206905092915050565b7f4e487b7100000000000000000000000000000000000000000000000000000000600052601160045260246000fd5b7f4e487b7100000000000000000000000000000000000000000000000000000000600052601260045260246000fd5b7f4e487b7100000000000000000000000000000000000000000000000000000000600052602260045260246000fd5b7f4e487b7100000000000000000000000000000000000000000000000000000000600052604160045260246000fd5b6000601f19601f8301169050919050565b7f5061757361626c653a206e6f7420706175736564000000000000000000000000600082015250565b7f455243373231456e756d657261626c653a206f776e657220696e646578206f7560008201527f74206f6620626f756e6473000000000000000000000000000000000000000000602082015250565b7f4552433732313a207472616e7366657220746f206e6f6e20455243373231526560008201527f63656976657220696d706c656d656e7465720000000000000000000000000000602082015250565b7f4f776e61626c653a206e6577206f776e657220697320746865207a65726f206160008201527f6464726573730000000000000000000000000000000000000000000000000000602082015250565b7f4552433732313a20746f6b656e20616c7265616479206d696e74656400000000600082015250565b7f4552433732313a207472616e7366657220746f20746865207a65726f2061646460008201527f7265737300000000000000000000000000000000000000000000000000000000602082015250565b7f4552433732313a20617070726f766520746f2063616c6c657200000000000000600082015250565b7f4552433732313a206f70657261746f7220717565727920666f72206e6f6e657860008201527f697374656e7420746f6b656e0000000000000000000000000000000000000000602082015250565b7f5061757361626c653a2070617573656400000000000000000000000000000000600082015250565b7f4552433732313a20617070726f76652063616c6c6572206973206e6f74206f7760008201527f6e6572206e6f7220617070726f76656420666f7220616c6c0000000000000000602082015250565b7f4552433732313a2062616c616e636520717565727920666f7220746865207a6560008201527f726f206164647265737300000000000000000000000000000000000000000000602082015250565b7f4552433732313a206f776e657220717565727920666f72206e6f6e657869737460008201527f656e7420746f6b656e0000000000000000000000000000000000000000000000602082015250565b7f45524337323155524953746f726167653a2055524920736574206f66206e6f6e60008201527f6578697374656e7420746f6b656e000000000000000000000000000000000000602082015250565b7f4552433732313a206d696e7420746f20746865207a65726f2061646472657373600082015250565b7f45524337323155524953746f726167653a2055524920717565727920666f722060008201527f6e6f6e6578697374656e7420746f6b656e000000000000000000000000000000602082015250565b7f4552433732313a20617070726f76656420717565727920666f72206e6f6e657860008201527f697374656e7420746f6b656e0000000000000000000000000000000000000000602082015250565b7f4f776e61626c653a2063616c6c6572206973206e6f7420746865206f776e6572600082015250565b7f4552433732313a207472616e73666572206f6620746f6b656e2074686174206960008201527f73206e6f74206f776e0000000000000000000000000000000000000000000000602082015250565b7f4552433732314d657461646174613a2055524920717565727920666f72206e6f60008201527f6e6578697374656e7420746f6b656e0000000000000000000000000000000000602082015250565b7f4552433732313a20617070726f76616c20746f2063757272656e74206f776e6560008201527f7200000000000000000000000000000000000000000000000000000000000000602082015250565b7f4552433732313a207472616e736665722063616c6c6572206973206e6f74206f60008201527f776e6572206e6f7220617070726f766564000000000000000000000000000000602082015250565b7f455243373231456e756d657261626c653a20676c6f62616c20696e646578206f60008201527f7574206f6620626f756e64730000000000000000000000000000000000000000602082015250565b7f4552433732314275726e61626c653a2063616c6c6572206973206e6f74206f7760008201527f6e6572206e6f7220617070726f76656400000000000000000000000000000000602082015250565b613e81816135e3565b8114613e8c57600080fd5b50565b613e98816135f5565b8114613ea357600080fd5b50565b613eaf81613601565b8114613eba57600080fd5b50565b613ec68161364d565b8114613ed157600080fd5b5056fe68747470733a2f2f676174657761792e70696e6174612e636c6f75642f697066732f516d51574c506d486e79435045713959664572316e4b4568677077735a62646178774155326d4651624d4b316552a2646970667358221220b19de2bc2f4cdc4ed4364fbfcc0bbb3c89a90172aba80dc675e6bef2e3a3d8df64736f6c63430008020033",
  "linkReferences": {},
  "deployedLinkReferences": {}
}